:020000040000FA
:100000000A128A11E12FFF1B0D2883137F18831713
:100010000008840A0319FF0A080000308A00040857
:10002000840A82070034203450344C34453441343F
:1000300053344534203457344134493454342E3405
:100040002E342E3400342034773461346E347434DA
:10005000203474346F34203473346134763465342E
:1000600020343F340034203431343A3443344F3474
:100070004634463445344534203432343A345434EA
:1000800045344134003446344F34523420345934EA
:100090004F3455345234203443344F34463446348C
:1000A00045344534003420345034523445345034CF
:1000B0004134523449344E344734203459344F3467
:1000C00055345234003446344F3452342034593489
:1000D0004F345534523420344D3449344C344B343D
:1000E000003452344534473455344C34413452345E
:1000F00020344F34523444344534523400342034A4
:100100005434483441344E344B34203459344F3411
:10011000553421342134003431343A34593445349F
:100120005334203432343A344E344F3420343A3459
:10013000003446344F345234203459344F3455341B
:100140005234203454344534413400342034313472
:100150003A3472346534673475346C3461347234D3
:10016000203400342034573452344F344E34473422
:10017000203449344434213421340034203445348B
:100180004E345434453452342034493444342034C9
:100190003A340034203432342E346E3465347734BB
:1001A00020343A3420340034203433343A344D345B
:1001B00049344C344B3420343A34003420345734EE
:1001C00045344C3443344F344D34453400342034BA
:1001D000483449342034003430340034313400346D
:1001E200F0007008831203138700081488100815A2
:1001F200081108002034313432343334343420349A
:1002020035343634373438342034313430343234BF
:1002120038342034373439343234333420343534BA
:1002220032343134303420343234393436343434A4
:1002320020343534373439343134203430343034A6
:100242003234343430343034303430343034303486
:1002520030343034203420342034203420340034FC
:1002620083120313A9000A128A151D270A128A1182
:10027200FD007D0883120313AB0031302B06031DF2
:1002820043294429CD2901300A128A1506260A1269
:100292008A1180300A128A1506260A128A11013042
:1002A200F4008030F5000F30F6000030F7000A123B
:1002B2008A1551260A128A11C0300A128A15062698
:1002C2000A128A113130F4008030F5001030F60045
:1002D2000030F7000A128A1551260A128A11831277
:1002E20003132B080A128A11EC220A128A11013016
:1002F2000A128A1506260A128A1180300A128A15F3
:1003020006260A128A111130F4008030F5000F30EF
:10031200F6000030F7000A128A1551260A128A11D5
:10032200C0300A128A1506260A128A117A30F4009F
:100332008030F5000C30F6000030F7000A128A1502
:1003420051260A128A110A128A151D270A128A11C7
:10035200FD007D0883120313AA00DC30F400803014
:10036200F5000130F6000030F7002A300A128A1533
:1003720085260A128A11750883120313A4007408D1
:10038200A30023082404031DC729C829EA2A3130FF
:10039200FD007D08A900EA2A32302B06031DD2296E
:1003A200D3295C2A01300A128A1506260A128A11FA
:1003B20080300A128A1506260A128A110130F400C8
:1003C2008030F5000F30F6000030F7000A128A156F
:1003D20051260A128A11C0300A128A1506260A12FA
:1003E2008A118730F4008030F5000C30F6000030BE
:1003F200F7000A128A1551260A128A118312031370
:100402002B080A128A11EC220A128A1101300A12EE
:100412008A1506260A128A1180300A128A150626C1
:100422000A128A111130F4008030F5000F30F60004
:100432000030F7000A128A1551260A128A11C030BA
:100442000A128A1506260A128A117A30F4008030BE
:10045200F5000C30F6000030F7000A128A1551261A
:100462000A128A110A128A151D270A128A11FD0020
:100472007D0883120313AA00DC30F4008030F500FB
:100482000130F6000030F7002A300A128A1585265C
:100492000A128A11750883120313A6007408A500B4
:1004A20025082604031D562A572AEA2A3230FD005F
:1004B2007D08A900EA2A33302B06031D612A622A2D
:1004C200EA2A01300A128A1506260A128A11803097
:1004D2000A128A1506260A128A110130F4008030A7
:1004E200F5000F30F6000030F7000A128A15512687
:1004F2000A128A11C0300A128A1506260A128A11B5
:100502005130F4008030F5000D30F6000030F70075
:100512000A128A1551260A128A11831203132B0812
:100522000A128A11EC220A128A1101300A128A1561
:1005320006260A128A1180300A128A1506260A1223
:100542008A111130F4008030F5000F30F6000030CF
:10055200F7000A128A1551260A128A11C0300A12AD
:100562008A1506260A128A117A30F4008030F500C4
:100572000C30F6000030F7000A128A1551260A12D2
:100582008A110A128A151D270A128A11FD007D0896
:1005920083120313AA00DC30F4008030F50001302E
:1005A200F6000030F7002A300A128A1585260A1250
:1005B2008A11750883120313A8007408A70027087C
:1005C2002804031DE52AE62AEA2A3330FD007D08C5
:1005D200A90029080800F30031307306031DF22A2E
:1005E200F32A122C831203130816F401F501831265
:1005F200031305144230F000F00BFD2A00008312B1
:10060200031305100730F1003A30F000F00B072B0E
:10061200F10B072B00000130F4070318F50A003034
:10062200F50700307502323003197402031C1A2BCD
:100632001B2BF82A0330F2008A30F1005530F0000B
:10064200F00B212BF10B212BF20B212B282BF60186
:10065200F7018312031305147C30F000F00B2F2BEB
:10066200322B8312031305100630F1000030F00024
:10067200F00B392BF10B392B3E2B0130F607031807
:10068200F70A0030F707003077023230031976029A
:10069200031C4C2B4D2B2A2BF401F501831203135F
:1006A20005154230F000F00B542B000083120313A7
:1006B20005110730F1003A30F000F00B5E2BF10B20
:1006C2005E2B00000130F4070318F50A0030F5072D
:1006D20000307502323003197402031C712B722B25
:1006E2004F2B0430F200CF30F1000130F000F00B5C
:1006F200782BF10B782BF20B782B7F2BF601F7017D
:100702008312031305157C30F000F00B862B892B26
:100712008312031305110630F1000030F000F00BD4
:10072200902BF10B902B952B0130F6070318F70A4B
:100732000030F70700307702323003197602031CCB
:10074200A32BA42B812B8312031385160330F200F3
:100752008A30F1005530F000F00BAD2BF10BAD2BD0
:10076200F20BAD2BB42B831203138512F401F501A6
:100772008312031385154230F000F00BBE2B0000EC
:100782008312031385110730F1003A30F000F00BA9
:10079200C82BF10BC82B00000130F4070318F50A2F
:1007A2000030F50700307502323003197402031C61
:1007B200DB2BDC2BB92B0730F2005830F10059301B
:1007C200F000F00BE22BF10BE22BF20BE22BE92B08
:1007D200F601F7018312031385157C30F000F00B4C
:1007E200F02BF32B8312031385110630F100003036
:1007F200F000F00BFA2BF10BFA2BFF2B0130F6076E
:100802000318F70A0030F707003077023230031975
:100812007602031C0D2C0E2CEB2B831203130812F1
:10082200D92C32307306031D172C182C762C831208
:1008320003138816F401F501831203138514423061
:10084200F000F00B222C00008312031385100730F6
:10085200F1003A30F000F00B2C2CF10B2C2C0000A4
:100862000130F4070318F50A0030F507003075026D
:10087200323003197402031C3F2C402C1D2C07300C
:10088200F2005830F1005930F000F00B462CF10B19
:10089200462CF20B462C4D2CF601F7018312031362
:1008A20085147C30F000F00B542C572C8312031368
:1008B20085100630F1000030F000F00B5E2CF10BD9
:1008C2005E2C632C0130F6070318F70A0030F70795
:1008D20000307702323003197602031C712C722C1D
:1008E2004F2C831203138812D92C33307306031D45
:1008F2007B2C7C2CD92C831203130817F401F501ED
:100902008312031388154230F000F00B862C00008E
:100912008312031388110730F1003A30F000F00B14
:10092200902CF10B902C00000130F4070318F50A0B
:100932000030F50700307502323003197402031CCF
:10094200A32CA42C812C0730F2005830F10059302E
:10095200F000F00BAA2CF10BAA2CF20BAA2CB12C52
:10096200F601F7018312031388157C30F000F00BB7
:10097200B82CBB2C8312031388110630F10000300F
:10098200F000F00BC22CF10BC22CC72C0130F60781
:100992000318F70A0030F7070030770232300319E4
:1009A2007602031CD52CD62CB32C83120313081306
:1009B20008008316031387018801F0308600850141
:1009C20089018312031309100A128A1538260A12A2
:1009D2008A1183120313051008128510881205115B
:1009E2008815851185120813A03084001030AC00E0
:1009F2000408AD005030AE002C08840083170008B4
:100A0200AF00AC0A2D08840083132F088000AD0AC2
:100A1200AE0BFD2C303084009030AC000408AD00E9
:100A22002830AE002C08840083170008AF00AC0AFF
:100A32002D08840083132F088000AD0AAE0B132DFE
:100A42005E308400B830AC000408AD000830AE005F
:100A52002C08840083170008AF00AC0A2D0884001C
:100A620083132F088000AD0AAE0B292D80300A12A5
:100A72008A1506260A128A11CC30F4008030F5005D
:100A82000830F6000030F7000A128A1551260A12C1
:100A92008A11023083120313AE004530AD00A93033
:100AA200AC00AC0B522DAD0B522DAE0B522D0130C2
:100AB2000A128A1506260A128A11AC30F400803016
:100AC200F5000B30F6000030F7000A128A155126A5
:100AD2000A128A11043083120313AD003D30AC00B8
:100AE200AC0B712DAD0B712D013083120313EC0091
:100AF2000030ED005830840083160317400883133A
:100B02008000840A41088000840A42088000840A26
:100B120043088000840A44088000840A4508800053
:100B2200AC2D0A128A151D270A128A118312031389
:100B3200AC002C08EE006E08AC006C08583E840035
:100B42002C08831380006C08013EEC006D0803182A
:100B5200013E003EED00831203136D08803AFF0050
:100B620080307F02031DB72D05306C02031CBA2DA5
:100B7200BB2D922D83120313091401300A128A1518
:100B820006260A128A1183120313EA01EB01831665
:100B92000317C601C7015830F4000030F5000530D4
:100BA200F6000030F700053083120313AC002C0866
:100BB200F0008316031746080A128A1523260A1222
:100BC2008A11303E0A128A1585260A128A11750880
:100BD20083120313E7007408E60066086704031D26
:100BE200F32DF42D482E831603174708C900460833
:100BF200C800013083120313EA000030EB0080309A
:100C02000A128A1506260A128A11D530F40080309B
:100C1200F5000430F6000030F7000A128A1551265A
:100C22000A128A11C0300A128A1506260A128A117D
:100C32000A3083120313AC002C08F000831603174A
:100C420046080A128A1523260A128A11A03EF400C7
:100C52000030F5000930F6000030F7000A128A155C
:100C620051260A128A11023083120313AE00453054
:100C7200AD00A930AC00AC0B3C2EAD0B3C2EAE0B44
:100C82003C2E01300A128A1506260A128A110130F8
:100C920083160317C6070318C70A0030C707470899
:100CA200803AFF0080307F02031D592E0730460232
:100CB200031C5C2E5D2ECC2D831203136A086B0479
:100CC200031D642E652E872E80300A128A15062691
:100CD2000A128A11A030F4008030F5000B30F600C1
:100CE2000030F7000A128A1551260A128A110230C0
:100CF20083120313AE004530AD00A930AC00AC0B3B
:100D0200802EAD0B802EAE0B802EAD2FDA30F4008C
:100D12008030F5000130F6000030F700831603172B
:100D220048085E3E0A128A1585260A128A1175083B
:100D320083120313E9007408E80001300A128A15CD
:100D420006260A128A118312031368086904031D16
:100D5200AB2EAC2EEC2E80300A128A1506260A1211
:100D62008A112130F4008030F5000F30F600003097
:100D7200F7000A128A1551260A128A11C0300A1285
:100D82008A1506260A128A11C230F4008030F50054
:100D92000930F6000030F7000A128A1551260A12AD
:100DA2008A118316031748085E3E840083130008E5
:100DB2000A128A1131210A128A1183120313AC001A
:100DC2008316031748085E3E8400831203132C081F
:100DD20083138000AD2F01300A128A1506260A12EB
:100DE2008A1180300A128A1506260A128A11943054
:100DF200F4008030F5000B30F6000030F7000A12E4
:100E02008A1551260A128A11C0300A128A1506263C
:100E12000A128A11B830F4008030F5000930F60069
:100E22000030F7000A128A1551260A128A110A1294
:100E32008A151D270A128A1183120313AC002C088B
:100E4200EE0031306E06031D272F282F612F01304F
:100E52000A128A1506260A128A1180300A128A1587
:100E620006260A128A114130F4008030F5000F3054
:100E7200F6000030F7000A128A1551260A128A116A
:100E8200C0300A128A1506260A128A115F30F4004F
:100E92008030F5000D30F6000030F7000A128A1596
:100EA20051260A128A118316031748085E3E8400EF
:100EB200831300080A128A11EC220A128A11AD2F3A
:100EC20032306E06031D662F672FAD2F01300A12D6
:100ED2008A1506260A128A1180300A128A150626F7
:100EE2000A128A112130F4008030F5000F30F6002A
:100EF2000030F7000A128A1551260A128A11C030F0
:100F02000A128A1506260A128A11C230F4008030AB
:100F1200F5000930F6000030F7000A128A15512652
:100F22000A128A118316031748085E3E840083134F
:100F320000080A128A1131210A128A11831203133C
:100F4200AC008316031748085E3E84008312031325
:100F52002C0883138000AD2F01300A128A15062651
:100F62000A128A1180300A128A1506260A128A117A
:100F72006D30F4008030F5000C30F6000030F700E0
:100F82000A128A1551260A128A1102308312031399
:100F9200AE004530AD00A930AC00AC0BCE2FAD0B8E
:100FA200CE2FAE0BCE2F01300A128A1506260A1258
:100FB2008A11831203130910582D0A128A1100286C
:100FC2008317C630FD000030FE00FB30FF0090307A
:100FD20084000A128A1514260A128A116030FD0052
:100FE2000E30FE00CD30FF00103084000A128A1548
:0E0FF20014260A128A1183010A128A11DA2CBF
:101C0C00F000700883120313870008108810081561
:101C1C00081108007E088A007F0882000A128A15C3
:101C2C0010260A128A158000840A04087D060319FE
:101C3C000034FF0A0319FE0A142EF300F201731C80
:101C4C00282E292E2D2E7008F1007108F207031092
:101C5C00F00D0310F30C7308031D352E362E252EB4
:101C6C007208080038300A128A1506260A128A15DC
:101C7C0006300A128A1506260A128A150C300A1228
:101C8C008A1506260A128A1501300A128A150626AA
:101C9C000A128A150800FB01FC01762E7B087407DA
:101CAC00F9007508F8000318F80AFB1F5E2EF803FC
:101CBC007808FA007A0883120313FF00790884006D
:101CCC000A128A1103200A128A150A128A11F120AB
:101CDC000A128A150130FB070318FC0A0030FC07B6
:101CEC007C08803AF8007708803A7802031D802E31
:101CFC0076087B02031C832E842E542E080083123C
:101D0C000313A000A101A201BC2E8312031321080E
:101D1C007407F9007508F8000318F80AA11F972E2C
:101D2C00F8037808FA007A0883120313FF00790885
:101D3C0084000A128A1103200A128A15FB0021085A
:101D4C002007FC007C088400831300087B06031921
:101D5C00B02EB12EB62E0130F4000030F500CC2E92
:101D6C000130A1070318A20A0030A2072208803A0A
:101D7C00F8007708803A7802031DC62E76082102F7
:101D8C00031CC92ECA2E8B2EF401F50108006434F5
:101D9C0065346534723461346A3400340034003490
:101DAC0000346E3461347634653465346E3400340A
:101DBC00003400340034733468347234653479344C
:101DCC006134733400340034003476346934733441
:101DDC00683477346134733400340034003479342B
:101DEC00613473346834773461346E3474346834E9
:101DFC000034733461346D340034003400340034F6
:101E0C00003400340034763465346E346B34613411
:101E1C0074340034003400340034743465346A345F
:101E2C006134003400340034003400340034831244
:101E3C000313061586100610061E252F262F342F89
:101E4C0031300A128A11F1200A128A1583120313F7
:101E5C00061A312F322F2C2F3130FF2F861E372FA1
:101E6C00382F462F34300A128A11F1200A128A15A3
:101E7C0083120313861A432F442F3E2F3430FF2F27
:101E8C00061F492F4A2F582F37300A128A11F1207A
:101E9C000A128A1583120313061B552F562F502F27
:101EAC003730FF2F861F5B2F5C2F6A2F2A300A12C8
:101EBC008A11F1200A128A1583120313861B672FCD
:101ECC00682F622F2A30FF2F061186140610061E6B
:101EDC00702F712F7F2F32300A128A11F1200A12C3
:101EEC008A1583120313061A7C2F7D2F772F32301D
:101EFC00FF2F861E822F832F912F35300A128A11C5
:101F0C00F1200A128A1583120313861A8E2F8F2F33
:101F1C00892F3530FF2F061F942F952FA32F383084
:101F2C000A128A11F1200A128A1583120313061B56
:101F3C00A02FA12F9B2F3830FF2F861FA62FA72F46
:101F4C00B52F30300A128A11F1200A128A15831229
:101F5C000313861BB22FB32FAD2F3030FF2F06117A
:101F6C0086100614061EBB2FBC2FCA2F33300A1244
:101F7C008A11F1200A128A1583120313061AC72F2D
:101F8C00C82FC22F3330FF2F861ECD2FCE2FDC2F24
:101F9C0036300A128A11F1200A128A1583120313A1
:101FAC00861AD92FDA2FD42F3630FF2F061FDF2FAA
:101FBC00E02FEE2F39300A128A11F1200A128A15FD
:101FCC0083120313061BEB2FEC2FE62F3930FF2F58
:101FDC00861FF12FF22F1D2F23300A128A11F120A8
:101FEC000A128A1583120313861BFD2FFE2FF82F5E
:041FFC002330080086
:02400E00BA3FB7
:00000001FF
